{
  "_format": "hh-sol-artifact-1",
  "contractName": "TokenMarket",
  "sourceName": "contracts/TokenMarket.sol",
  "abi": [
    {
      "inputs": [
        {
          "internalType": "uint256",
          "name": "_maxRoyalty",
          "type": "uint256"
        },
        {
          "internalType": "address",
          "name": "_nftContractAddress",
          "type": "address"
        },
        {
          "internalType": "address",
          "name": "_storageContractAddress",
          "type": "address"
        }
      ],
      "stateMutability": "nonpayable",
      "type": "constructor"
    },
    {
      "anonymous": false,
      "inputs": [
        {
          "indexed": true,
          "internalType": "address",
          "name": "previousOwner",
          "type": "address"
        },
        {
          "indexed": true,
          "internalType": "address",
          "name": "newOwner",
          "type": "address"
        }
      ],
      "name": "OwnershipTransferred",
      "type": "event"
    },
    {
      "anonymous": false,
      "inputs": [
        {
          "indexed": false,
          "internalType": "address",
          "name": "account",
          "type": "address"
        }
      ],
      "name": "Paused",
      "type": "event"
    },
    {
      "anonymous": false,
      "inputs": [
        {
          "indexed": true,
          "internalType": "bytes32",
          "name": "role",
          "type": "bytes32"
        },
        {
          "indexed": true,
          "internalType": "bytes32",
          "name": "previousAdminRole",
          "type": "bytes32"
        },
        {
          "indexed": true,
          "internalType": "bytes32",
          "name": "newAdminRole",
          "type": "bytes32"
        }
      ],
      "name": "RoleAdminChanged",
      "type": "event"
    },
    {
      "anonymous": false,
      "inputs": [
        {
          "indexed": true,
          "internalType": "bytes32",
          "name": "role",
          "type": "bytes32"
        },
        {
          "indexed": true,
          "internalType": "address",
          "name": "account",
          "type": "address"
        },
        {
          "indexed": true,
          "internalType": "address",
          "name": "sender",
          "type": "address"
        }
      ],
      "name": "RoleGranted",
      "type": "event"
    },
    {
      "anonymous": false,
      "inputs": [
        {
          "indexed": true,
          "internalType": "bytes32",
          "name": "role",
          "type": "bytes32"
        },
        {
          "indexed": true,
          "internalType": "address",
          "name": "account",
          "type": "address"
        },
        {
          "indexed": true,
          "internalType": "address",
          "name": "sender",
          "type": "address"
        }
      ],
      "name": "RoleRevoked",
      "type": "event"
    },
    {
      "anonymous": false,
      "inputs": [
        {
          "indexed": false,
          "internalType": "uint256",
          "name": "standard",
          "type": "uint256"
        },
        {
          "indexed": false,
          "internalType": "address",
          "name": "nftAddress",
          "type": "address"
        },
        {
          "indexed": false,
          "internalType": "uint256",
          "name": "tokenId",
          "type": "uint256"
        },
        {
          "indexed": false,
          "internalType": "uint256",
          "name": "itemId",
          "type": "uint256"
        },
        {
          "indexed": false,
          "internalType": "uint256",
          "name": "amount",
          "type": "uint256"
        },
        {
          "indexed": false,
          "internalType": "uint256",
          "name": "price",
          "type": "uint256"
        },
        {
          "indexed": false,
          "internalType": "address",
          "name": "owner",
          "type": "address"
        }
      ],
      "name": "TokenBought",
      "type": "event"
    },
    {
      "anonymous": false,
      "inputs": [
        {
          "indexed": false,
          "internalType": "uint256",
          "name": "standard",
          "type": "uint256"
        },
        {
          "indexed": false,
          "internalType": "address",
          "name": "nftAddress",
          "type": "address"
        },
        {
          "indexed": false,
          "internalType": "uint256",
          "name": "tokenId",
          "type": "uint256"
        },
        {
          "indexed": false,
          "internalType": "uint256",
          "name": "itemId",
          "type": "uint256"
        },
        {
          "indexed": false,
          "internalType": "uint256",
          "name": "amount",
          "type": "uint256"
        },
        {
          "indexed": false,
          "internalType": "uint256",
          "name": "price",
          "type": "uint256"
        },
        {
          "indexed": false,
          "internalType": "address",
          "name": "owner",
          "type": "address"
        }
      ],
      "name": "TokenListed",
      "type": "event"
    },
    {
      "anonymous": false,
      "inputs": [
        {
          "indexed": false,
          "internalType": "address",
          "name": "nftAddress",
          "type": "address"
        },
        {
          "indexed": false,
          "internalType": "uint256",
          "name": "tokenId",
          "type": "uint256"
        },
        {
          "indexed": false,
          "internalType": "uint256",
          "name": "amount",
          "type": "uint256"
        },
        {
          "indexed": false,
          "internalType": "address",
          "name": "owner",
          "type": "address"
        }
      ],
      "name": "TokenMinted",
      "type": "event"
    },
    {
      "anonymous": false,
      "inputs": [
        {
          "indexed": false,
          "internalType": "uint256",
          "name": "standard",
          "type": "uint256"
        },
        {
          "indexed": false,
          "internalType": "address",
          "name": "nftAddress",
          "type": "address"
        },
        {
          "indexed": false,
          "internalType": "uint256",
          "name": "tokenId",
          "type": "uint256"
        },
        {
          "indexed": false,
          "internalType": "uint256",
          "name": "itemId",
          "type": "uint256"
        },
        {
          "indexed": false,
          "internalType": "uint256",
          "name": "price",
          "type": "uint256"
        }
      ],
      "name": "TokenUpdated",
      "type": "event"
    },
    {
      "anonymous": false,
      "inputs": [
        {
          "indexed": false,
          "internalType": "address",
          "name": "account",
          "type": "address"
        }
      ],
      "name": "Unpaused",
      "type": "event"
    },
    {
      "inputs": [],
      "name": "DEFAULT_ADMIN_ROLE",
      "outputs": [
        {
          "internalType": "bytes32",
          "name": "",
          "type": "bytes32"
        }
      ],
      "stateMutability": "view",
      "type": "function"
    },
    {
      "inputs": [],
      "name": "MARKET_ADMIN_ROLE",
      "outputs": [
        {
          "internalType": "bytes32",
          "name": "",
          "type": "bytes32"
        }
      ],
      "stateMutability": "view",
      "type": "function"
    },
    {
      "inputs": [
        {
          "internalType": "address",
          "name": "_nftAddress",
          "type": "address"
        },
        {
          "internalType": "uint256",
          "name": "_tokenId",
          "type": "uint256"
        },
        {
          "internalType": "uint256",
          "name": "_itemId",
          "type": "uint256"
        }
      ],
      "name": "buyToken",
      "outputs": [],
      "stateMutability": "payable",
      "type": "function"
    },
    {
      "inputs": [
        {
          "internalType": "address",
          "name": "_nftAddress",
          "type": "address"
        },
        {
          "internalType": "uint256",
          "name": "_tokenId",
          "type": "uint256"
        },
        {
          "internalType": "uint256",
          "name": "_price",
          "type": "uint256"
        },
        {
          "internalType": "uint256",
          "name": "_amount",
          "type": "uint256"
        }
      ],
      "name": "createSale",
      "outputs": [],
      "stateMutability": "nonpayable",
      "type": "function"
    },
    {
      "inputs": [
        {
          "internalType": "bytes32",
          "name": "role",
          "type": "bytes32"
        }
      ],
      "name": "getRoleAdmin",
      "outputs": [
        {
          "internalType": "bytes32",
          "name": "",
          "type": "bytes32"
        }
      ],
      "stateMutability": "view",
      "type": "function"
    },
    {
      "inputs": [
        {
          "internalType": "bytes32",
          "name": "role",
          "type": "bytes32"
        },
        {
          "internalType": "uint256",
          "name": "index",
          "type": "uint256"
        }
      ],
      "name": "getRoleMember",
      "outputs": [
        {
          "internalType": "address",
          "name": "",
          "type": "address"
        }
      ],
      "stateMutability": "view",
      "type": "function"
    },
    {
      "inputs": [
        {
          "internalType": "bytes32",
          "name": "role",
          "type": "bytes32"
        }
      ],
      "name": "getRoleMemberCount",
      "outputs": [
        {
          "internalType": "uint256",
          "name": "",
          "type": "uint256"
        }
      ],
      "stateMutability": "view",
      "type": "function"
    },
    {
      "inputs": [
        {
          "internalType": "bytes32",
          "name": "role",
          "type": "bytes32"
        },
        {
          "internalType": "address",
          "name": "account",
          "type": "address"
        }
      ],
      "name": "grantRole",
      "outputs": [],
      "stateMutability": "nonpayable",
      "type": "function"
    },
    {
      "inputs": [
        {
          "internalType": "bytes32",
          "name": "role",
          "type": "bytes32"
        },
        {
          "internalType": "address",
          "name": "account",
          "type": "address"
        }
      ],
      "name": "hasRole",
      "outputs": [
        {
          "internalType": "bool",
          "name": "",
          "type": "bool"
        }
      ],
      "stateMutability": "view",
      "type": "function"
    },
    {
      "inputs": [],
      "name": "maxRoyalty",
      "outputs": [
        {
          "internalType": "uint256",
          "name": "",
          "type": "uint256"
        }
      ],
      "stateMutability": "view",
      "type": "function"
    },
    {
      "inputs": [
        {
          "internalType": "uint256",
          "name": "_tokenId",
          "type": "uint256"
        },
        {
          "internalType": "uint256",
          "name": "_royalty",
          "type": "uint256"
        },
        {
          "internalType": "uint256",
          "name": "_amount",
          "type": "uint256"
        }
      ],
      "name": "mintToken",
      "outputs": [],
      "stateMutability": "nonpayable",
      "type": "function"
    },
    {
      "inputs": [],
      "name": "nftContractAddress",
      "outputs": [
        {
          "internalType": "address",
          "name": "",
          "type": "address"
        }
      ],
      "stateMutability": "view",
      "type": "function"
    },
    {
      "inputs": [],
      "name": "owner",
      "outputs": [
        {
          "internalType": "address",
          "name": "",
          "type": "address"
        }
      ],
      "stateMutability": "view",
      "type": "function"
    },
    {
      "inputs": [],
      "name": "paused",
      "outputs": [
        {
          "internalType": "bool",
          "name": "",
          "type": "bool"
        }
      ],
      "stateMutability": "view",
      "type": "function"
    },
    {
      "inputs": [],
      "name": "renounceOwnership",
      "outputs": [],
      "stateMutability": "nonpayable",
      "type": "function"
    },
    {
      "inputs": [
        {
          "internalType": "bytes32",
          "name": "role",
          "type": "bytes32"
        },
        {
          "internalType": "address",
          "name": "account",
          "type": "address"
        }
      ],
      "name": "renounceRole",
      "outputs": [],
      "stateMutability": "nonpayable",
      "type": "function"
    },
    {
      "inputs": [
        {
          "internalType": "bytes32",
          "name": "role",
          "type": "bytes32"
        },
        {
          "internalType": "address",
          "name": "account",
          "type": "address"
        }
      ],
      "name": "revokeRole",
      "outputs": [],
      "stateMutability": "nonpayable",
      "type": "function"
    },
    {
      "inputs": [
        {
          "internalType": "uint256",
          "name": "_newMaxRoyalty",
          "type": "uint256"
        }
      ],
      "name": "setMaxRoyalty",
      "outputs": [],
      "stateMutability": "nonpayable",
      "type": "function"
    },
    {
      "inputs": [],
      "name": "storageContractAddress",
      "outputs": [
        {
          "internalType": "address",
          "name": "",
          "type": "address"
        }
      ],
      "stateMutability": "view",
      "type": "function"
    },
    {
      "inputs": [
        {
          "internalType": "bytes4",
          "name": "interfaceId",
          "type": "bytes4"
        }
      ],
      "name": "supportsInterface",
      "outputs": [
        {
          "internalType": "bool",
          "name": "",
          "type": "bool"
        }
      ],
      "stateMutability": "view",
      "type": "function"
    },
    {
      "inputs": [
        {
          "internalType": "address",
          "name": "newOwner",
          "type": "address"
        }
      ],
      "name": "transferOwnership",
      "outputs": [],
      "stateMutability": "nonpayable",
      "type": "function"
    }
  ],
  "bytecode": "0x60806040523480156200001157600080fd5b50604051620026713803806200267183398101604081905262000034916200028a565b6000805460ff191690556200004933620000c7565b6200005660003362000120565b620000827f3fb0aaa9e8051cfc6c234a5d843bed33910f70c647055f27247c10144c7552e13362000120565b600392909255600480546001600160a01b03199081166001600160a01b03938416179091556005805482169290931691821790925560068054909216179055620002cb565b600080546001600160a01b03838116610100818102610100600160a81b0319851617855560405193049190911692909183917f8be0079c531659141344cd1fd0a4f28419497f9722a3daafe3b4186f6b6457e091a35050565b6200012c828262000130565b5050565b6200014782826200017360201b620016d11760201c565b60008281526002602090815260409091206200016e91839062001758620001fb821b17901c565b505050565b60008281526001602090815260408083206001600160a01b038516845290915290205460ff166200012c5760008281526001602081815260408084206001600160a01b0386168086529252808420805460ff19169093179092559051339285917f2f8788117e7eff1d82e926ec794901d17c78024a50270940304540a733656f0d9190a45050565b600062000212836001600160a01b0384166200021b565b90505b92915050565b6000818152600183016020526040812054620002645750815460018181018455600084815260208082209093018490558454848252828601909352604090209190915562000215565b50600062000215565b80516001600160a01b03811681146200028557600080fd5b919050565b600080600060608486031215620002a057600080fd5b83519250620002b2602085016200026d565b9150620002c2604085016200026d565b90509250925092565b61239680620002db6000396000f3fe60806040526004361061013a5760003560e01c80638da5cb5b116100bb578063c96e9f4b1161007f578063d6f0d39f11610059578063d6f0d39f146103ce578063e671499b14610402578063f2fde38b1461041557600080fd5b8063c96e9f4b1461036e578063ca15c8731461038e578063d547741f146103ae57600080fd5b80638da5cb5b146102b05780639010d07c146102d357806391d14854146102f3578063a217fddf14610339578063aae282e11461034e57600080fd5b80635c975abb116101025780635c975abb146102155780635cc2f1171461022d578063674a12c71461024d578063715018a6146102635780637c3771741461027857600080fd5b806301ffc9a71461013f5780630423f24014610174578063248a9ca3146101965780632f2ff15d146101d557806336568abe146101f5575b600080fd5b34801561014b57600080fd5b5061015f61015a366004611f5c565b610435565b60405190151581526020015b60405180910390f35b34801561018057600080fd5b5061019461018f366004611f86565b610460565b005b3480156101a257600080fd5b506101c76101b1366004611fb2565b6000908152600160208190526040909120015490565b60405190815260200161016b565b3480156101e157600080fd5b506101946101f0366004611fe0565b610753565b34801561020157600080fd5b50610194610210366004611fe0565b61077f565b34801561022157600080fd5b5060005460ff1661015f565b34801561023957600080fd5b50610194610248366004612010565b61080b565b34801561025957600080fd5b506101c760035481565b34801561026f57600080fd5b50610194610e47565b34801561028457600080fd5b50600554610298906001600160a01b031681565b6040516001600160a01b03909116815260200161016b565b3480156102bc57600080fd5b5060005461010090046001600160a01b0316610298565b3480156102df57600080fd5b506102986102ee36600461204b565b610eb3565b3480156102ff57600080fd5b5061015f61030e366004611fe0565b60009182526001602090815260408084206001600160a01b0393909316845291905290205460ff1690565b34801561034557600080fd5b506101c7600081565b34801561035a57600080fd5b50600454610298906001600160a01b031681565b34801561037a57600080fd5b50610194610389366004611fb2565b610ed2565b34801561039a57600080fd5b506101c76103a9366004611fb2565b610f4d565b3480156103ba57600080fd5b506101946103c9366004611fe0565b610f64565b3480156103da57600080fd5b506101c77f3fb0aaa9e8051cfc6c234a5d843bed33910f70c647055f27247c10144c7552e181565b61019461041036600461206d565b610f8b565b34801561042157600080fd5b506101946104303660046120a2565b611600565b60006001600160e01b03198216635a05180f60e01b148061045a575061045a8261176d565b92915050565b600081116104b55760405162461bcd60e51b815260206004820152601f60248201527f416d6f756e742073686f756c64206265206d6f7265207468616e207a65726f0060448201526064015b60405180910390fd5b6003548211156105075760405162461bcd60e51b815260206004820152601660248201527f526f79616c7479206c696d69742065786365656465640000000000000000000060448201526064016104ac565b6005546004805460405163472bf44760e01b81526001600160a01b0391821692810192909252602482018690529091169063472bf4479060440160206040518083038186803b15801561055957600080fd5b505afa15801561056d573d6000803e3d6000fd5b505050506040513d601f19601f8201168201806040525081019061059191906120d4565b156105de5760405162461bcd60e51b815260206004820152601760248201527f546f6b656e20697320616c7265616479206d696e74656400000000000000000060448201526064016104ac565b6004546001600160a01b031663731133e9336040516001600160e01b031960e084901b1681526001600160a01b0390911660048201526024810186905260448101849052608060648201526002608482015261060f60f31b60a482015260c401600060405180830381600087803b15801561065857600080fd5b505af115801561066c573d6000803e3d6000fd5b505060065460048054604080516319545ef360e31b81526001600160a01b03928316938101939093526024830189905260448301879052336064840152608483018890524260a4840152519216935063caa2f798925060c48082019260009290919082900301818387803b1580156106e357600080fd5b505af11580156106f7573d6000803e3d6000fd5b5050600454604080516001600160a01b03909216825260208201879052818101859052336060830152517f6a1a369ef3c3eebe428c993f6eb79fb1438544741070bc7a4388c801fa08463d9350908190036080019150a1505050565b6000828152600160208190526040909120015461077081336117a2565b61077a8383611822565b505050565b6001600160a01b03811633146107fd5760405162461bcd60e51b815260206004820152602f60248201527f416363657373436f6e74726f6c3a2063616e206f6e6c792072656e6f756e636560448201527f20726f6c657320666f722073656c66000000000000000000000000000000000060648201526084016104ac565b6108078282611844565b5050565b6000811161085b5760405162461bcd60e51b815260206004820152601f60248201527f416d6f756e742073686f756c64206265206d6f7265207468616e207a65726f0060448201526064016104ac565b600082116108ab5760405162461bcd60e51b815260206004820152601f60248201527f5072696365206d7573742062652067726561746572207468616e207a65726f0060448201526064016104ac565b6000806108b786611866565b15610a89576040516331a9108f60e11b8152600481018690526000906001600160a01b03881690636352211e9060240160206040518083038186803b1580156108ff57600080fd5b505afa158015610913573d6000803e3d6000fd5b505050506040513d601f19601f8201168201806040525081019061093791906120ef565b90506001600160a01b03811633146109915760405162461bcd60e51b815260206004820152601360248201527f43616c6c6572206973206e6f74206f776e65720000000000000000000000000060448201526064016104ac565b600184111561099f57600193505b60006001600160a01b03881663e985e9c5336040516001600160e01b031960e084901b1681526001600160a01b03909116600482015230602482015260440160206040518083038186803b1580156109f657600080fd5b505afa158015610a0a573d6000803e3d6000fd5b505050506040513d601f19601f82011682018060405250810190610a2e91906120d4565b905080610a7d5760405162461bcd60e51b815260206004820152601b60248201527f53657420617070726f76616c206265666f7265206c697374696e67000000000060448201526064016104ac565b6102d193505050610caa565b610a92866118e8565b15610c625760006001600160a01b03871662fdd58e336040516001600160e01b031960e084901b1681526001600160a01b0390911660048201526024810189905260440160206040518083038186803b158015610aee57600080fd5b505afa158015610b02573d6000803e3d6000fd5b505050506040513d601f19601f82011682018060405250810190610b26919061210c565b905083811015610b785760405162461bcd60e51b815260206004820152601560248201527f4d757374206f776e20656e6f75676820746f6b656e000000000000000000000060448201526064016104ac565b60006001600160a01b03881663e985e9c5336040516001600160e01b031960e084901b1681526001600160a01b03909116600482015230602482015260440160206040518083038186803b158015610bcf57600080fd5b505afa158015610be3573d6000803e3d6000fd5b505050506040513d601f19601f82011682018060405250810190610c0791906120d4565b905080610c565760405162461bcd60e51b815260206004820152601b60248201527f53657420617070726f76616c206265666f7265206c697374696e67000000000060448201526064016104ac565b61048393505050610caa565b60405162461bcd60e51b815260206004820152601360248201527f496e76616c6964206e667420616464726573730000000000000000000000000060448201526064016104ac565b600654604051630baee51360e31b81526001600160a01b0388811660048301526024820188905290911690635d7728989060440160206040518083038186803b158015610cf657600080fd5b505afa158015610d0a573d6000803e3d6000fd5b505050506040513d601f19601f82011682018060405250810190610d2e919061210c565b610d3990600161213b565b60065460408051638417307960e01b81526001600160a01b038a81166004830152602482018a90526044820185905260648201889052608482018990523360a483015260c482018790524260e483015291519394509116916384173079916101048082019260009290919082900301818387803b158015610db957600080fd5b505af1158015610dcd573d6000803e3d6000fd5b505050507fffd04b97a9cf557cd57a41e632d694a5249a703c2b9c58c162b81077a3b6f246828787848789610dff3390565b604080519788526001600160a01b0396871660208901528701949094526060860192909252608085015260a08401521660c082015260e00160405180910390a1505050505050565b6000546001600160a01b03610100909104163314610ea75760405162461bcd60e51b815260206004820181905260248201527f4f776e61626c653a2063616c6c6572206973206e6f7420746865206f776e657260448201526064016104ac565b610eb1600061191e565b565b6000828152600260205260408120610ecb9083611984565b9392505050565b610efc7f3fb0aaa9e8051cfc6c234a5d843bed33910f70c647055f27247c10144c7552e13361030e565b610f485760405162461bcd60e51b815260206004820152601b60248201527f2361646d696e4f6e6c793a206e6565642061646d696e20726f6c65000000000060448201526064016104ac565b600355565b600081815260026020526040812061045a90611990565b60008281526001602081905260409091200154610f8181336117a2565b61077a8383611844565b600654604051630baee51360e31b81526001600160a01b0385811660048301526024820185905290911690635d7728989060440160206040518083038186803b158015610fd757600080fd5b505afa158015610feb573d6000803e3d6000fd5b505050506040513d601f19601f8201168201806040525081019061100f919061210c565b81111561105e5760405162461bcd60e51b815260206004820152601860248201527f4974656d206e6f7420666f756e6420696e206d61726b6574000000000000000060448201526064016104ac565b6006546040516367aa9b6760e01b81526001600160a01b038581166004830152602482018590526044820184905260009283928392839283928392839216906367aa9b67906064016101006040518083038186803b1580156110bf57600080fd5b505afa1580156110d3573d6000803e3d6000fd5b505050506040513d601f19601f820116820180604052508101906110f79190612153565b97505096509650965096509650965060006001600160a01b0316846001600160a01b031614156111695760405162461bcd60e51b815260206004820152601a60248201527f546f6b656e206e6f7420666f756e6420696e206c697374696e6700000000000060448201526064016104ac565b816111b65760405162461bcd60e51b815260206004820152601560248201527f546f6b656e206973206e6f74207472616461626c65000000000000000000000060448201526064016104ac565b6001600160a01b03841633141561120f5760405162461bcd60e51b815260206004820152601460248201527f43616e6e6f7420627579206f776e20746f6b656e00000000000000000000000060448201526064016104ac565b86341461125e5760405162461bcd60e51b815260206004820152601360248201527f4e6f7420656e6f756768206574682073656e740000000000000000000000000060448201526064016104ac565b6112678a611866565b156113b9576040516331a9108f60e11b8152600481018a90526000906001600160a01b038c1690636352211e9060240160206040518083038186803b1580156112af57600080fd5b505afa1580156112c3573d6000803e3d6000fd5b505050506040513d601f19601f820116820180604052508101906112e791906120ef565b9050846001600160a01b0316816001600160a01b03161461134a5760405162461bcd60e51b815260206004820152601d60248201527f546f6b656e206e6f74206f776e6564206279207468652073656c6c657200000060448201526064016104ac565b604051632142170760e11b81526001600160a01b038681166004830152336024830152604482018c90528c16906342842e0e906064015b600060405180830381600087803b15801561139b57600080fd5b505af11580156113af573d6000803e3d6000fd5b50505050506114eb565b6113c28a6118e8565b15610c6257604051627eeac760e11b81526001600160a01b038581166004830152602482018b9052600091908c169062fdd58e9060440160206040518083038186803b15801561141157600080fd5b505afa158015611425573d6000803e3d6000fd5b505050506040513d601f19601f82011682018060405250810190611449919061210c565b90508681101561149b5760405162461bcd60e51b815260206004820152601b60248201527f4e6f7420656e6f75676820746f6b656e7320617661696c61626c65000000000060448201526064016104ac565b604051637921219560e11b81526001600160a01b038681166004830152336024830152604482018c90526064820189905260a06084830152600060a48301528c169063f242432a9060c401611381565b6114f78484348861199a565b60065460408051637cd7efc560e01b81526001600160a01b038d81166004830152602482018d9052604482018c9052606482018a9052608482018b905287811660a48301523360c48301524260e483015291519190921691637cd7efc59161010480830192600092919082900301818387803b15801561157657600080fd5b505af115801561158a573d6000803e3d6000fd5b5050604080518481526001600160a01b038e811660208301528183018e9052606082018d9052608082018b905260a082018c9052881660c082015290517fa75b2a2e83f06090ef705ebcdd769b503ed43ca519febed2d72a7c2baa239ec593509081900360e0019150a150505050505050505050565b6000546001600160a01b036101009091041633146116605760405162461bcd60e51b815260206004820181905260248201527f4f776e61626c653a2063616c6c6572206973206e6f7420746865206f776e657260448201526064016104ac565b6001600160a01b0381166116c55760405162461bcd60e51b815260206004820152602660248201527f4f776e61626c653a206e6577206f776e657220697320746865207a65726f206160448201526564647265737360d01b60648201526084016104ac565b6116ce8161191e565b50565b60008281526001602090815260408083206001600160a01b038516845290915290205460ff166108075760008281526001602081815260408084206001600160a01b0386168086529252808420805460ff19169093179092559051339285917f2f8788117e7eff1d82e926ec794901d17c78024a50270940304540a733656f0d9190a45050565b6000610ecb836001600160a01b038416611baf565b60006001600160e01b03198216637965db0b60e01b148061045a57506301ffc9a760e01b6001600160e01b031983161461045a565b60008281526001602090815260408083206001600160a01b038516845290915290205460ff16610807576117e0816001600160a01b03166014611bfe565b6117eb836020611bfe565b6040516020016117fc9291906121fb565b60408051601f198184030181529082905262461bcd60e51b82526104ac9160040161227c565b61182c82826116d1565b600082815260026020526040902061077a9082611758565b61184e8282611da7565b600082815260026020526040902061077a9082611e2a565b6040516301ffc9a760e01b81526380ac58cd60e01b60048201526000906001600160a01b038316906301ffc9a7906024015b60206040518083038186803b1580156118b057600080fd5b505afa1580156118c4573d6000803e3d6000fd5b505050506040513d601f19601f8201168201806040525081019061045a91906120d4565b6040516301ffc9a760e01b8152636cdb3d1360e11b60048201526000906001600160a01b038316906301ffc9a790602401611898565b600080546001600160a01b0383811661010081810274ffffffffffffffffffffffffffffffffffffffff0019851617855560405193049190911692909183917f8be0079c531659141344cd1fd0a4f28419497f9722a3daafe3b4186f6b6457e091a35050565b6000610ecb8383611e3f565b600061045a825490565b60065460408051630824ea6b60e31b815290516000926001600160a01b0316916341275358916004808301926020929190829003018186803b1580156119df57600080fd5b505afa1580156119f3573d6000803e3d6000fd5b505050506040513d601f19601f82011682018060405250810190611a1791906120ef565b9050600082611a27576000611a3d565b6064611a3384866122af565b611a3d91906122ce565b905060006064600660009054906101000a90046001600160a01b03166001600160a01b03166326232a2e6040518163ffffffff1660e01b815260040160206040518083038186803b158015611a9157600080fd5b505afa158015611aa5573d6000803e3d6000fd5b505050506040513d601f19601f82011682018060405250810190611ac9919061210c565b611ad390876122af565b611add91906122ce565b9050600081611aec84886122f0565b611af691906122f0565b6040519091506001600160a01b0389169082156108fc029083906000818181858888f19350505050158015611b2f573d6000803e3d6000fd5b506040516001600160a01b0385169083156108fc029084906000818181858888f19350505050158015611b66573d6000803e3d6000fd5b508215611ba5576040516001600160a01b0388169084156108fc029085906000818181858888f19350505050158015611ba3573d6000803e3d6000fd5b505b5050505050505050565b6000818152600183016020526040812054611bf65750815460018181018455600084815260208082209093018490558454848252828601909352604090209190915561045a565b50600061045a565b60606000611c0d8360026122af565b611c1890600261213b565b67ffffffffffffffff811115611c3057611c30612307565b6040519080825280601f01601f191660200182016040528015611c5a576020820181803683370190505b509050600360fc1b81600081518110611c7557611c7561231d565b60200101906001600160f81b031916908160001a905350600f60fb1b81600181518110611ca457611ca461231d565b60200101906001600160f81b031916908160001a9053506000611cc88460026122af565b611cd390600161213b565b90505b6001811115611d58577f303132333435363738396162636465660000000000000000000000000000000085600f1660108110611d1457611d1461231d565b1a60f81b828281518110611d2a57611d2a61231d565b60200101906001600160f81b031916908160001a90535060049490941c93611d5181612333565b9050611cd6565b508315610ecb5760405162461bcd60e51b815260206004820181905260248201527f537472696e67733a20686578206c656e67746820696e73756666696369656e7460448201526064016104ac565b60008281526001602090815260408083206001600160a01b038516845290915290205460ff16156108075760008281526001602090815260408083206001600160a01b0385168085529252808320805460ff1916905551339285917ff6391f5c32d9c69d2a47ea670b442974b53935d1edc7fd64eb21e047a839171b9190a45050565b6000610ecb836001600160a01b038416611e69565b6000826000018281548110611e5657611e5661231d565b9060005260206000200154905092915050565b60008181526001830160205260408120548015611f52576000611e8d6001836122f0565b8554909150600090611ea1906001906122f0565b9050818114611f06576000866000018281548110611ec157611ec161231d565b9060005260206000200154905080876000018481548110611ee457611ee461231d565b6000918252602080832090910192909255918252600188019052604090208390555b8554869080611f1757611f1761234a565b60019003818190600052602060002001600090559055856001016000868152602001908152602001600020600090556001935050505061045a565b600091505061045a565b600060208284031215611f6e57600080fd5b81356001600160e01b031981168114610ecb57600080fd5b600080600060608486031215611f9b57600080fd5b505081359360208301359350604090920135919050565b600060208284031215611fc457600080fd5b5035919050565b6001600160a01b03811681146116ce57600080fd5b60008060408385031215611ff357600080fd5b82359150602083013561200581611fcb565b809150509250929050565b6000806000806080858703121561202657600080fd5b843561203181611fcb565b966020860135965060408601359560600135945092505050565b6000806040838503121561205e57600080fd5b50508035926020909101359150565b60008060006060848603121561208257600080fd5b833561208d81611fcb565b95602085013595506040909401359392505050565b6000602082840312156120b457600080fd5b8135610ecb81611fcb565b805180151581146120cf57600080fd5b919050565b6000602082840312156120e657600080fd5b610ecb826120bf565b60006020828403121561210157600080fd5b8151610ecb81611fcb565b60006020828403121561211e57600080fd5b5051919050565b634e487b7160e01b600052601160045260246000fd5b6000821982111561214e5761214e612125565b500190565b600080600080600080600080610100898b03121561217057600080fd5b885197506020890151965060408901519550606089015161219081611fcb565b60808a01519095506121a181611fcb565b93506121af60a08a016120bf565b60c08a015160e0909a0151989b979a5095989497939692505050565b60005b838110156121e65781810151838201526020016121ce565b838111156121f5576000848401525b50505050565b7f416363657373436f6e74726f6c3a206163636f756e74200000000000000000008152600083516122338160178501602088016121cb565b7f206973206d697373696e6720726f6c652000000000000000000000000000000060179184019182015283516122708160288401602088016121cb565b01602801949350505050565b602081526000825180602084015261229b8160408501602087016121cb565b601f01601f19169190910160400192915050565b60008160001904831182151516156122c9576122c9612125565b500290565b6000826122eb57634e487b7160e01b600052601260045260246000fd5b500490565b60008282101561230257612302612125565b500390565b634e487b7160e01b600052604160045260246000fd5b634e487b7160e01b600052603260045260246000fd5b60008161234257612342612125565b506000190190565b634e487b7160e01b600052603160045260246000fdfea2646970667358221220be387f222dc6b0ee67ea7eb7af83b1d0ba8b51c832fba90abe01a7adae4564f464736f6c63430008090033",
  "linkReferences": {},
  "deployedLinkReferences": {}
}